:020000040000FA
:10000000600400206D020000710200007302000015
:100010007502000077020000790200000000000075
:100020000000000000000000000000007B02000053
:100030007D020000000000007F0200004904000073
:10004000830200008302000083020000830200009C
:10005000830200008302000083020000830200008C
:10006000830200008302000083020000830200007C
:10007000830200008302000083020000830200006C
:10008000830200008302000083020000830200005C
:10009000830200008302000083020000830200004C
:1000A000830200008302000083020000830200003C
:1000B000830200008302000083020000830200002C
:1000C000830200008302000083020000830200001C
:1000D000830200008302000083020000830200000C
:1000E00083020000830200008302000083020000FC
:1000F00083020000830200008302000083020000EC
:1001000083020000830200008302000083020000DB
:1001100083020000830200008302000083020000CB
:1001200083020000830200008302000083020000BB
:1001300083020000830200008302000083020000AB
:1001400000000000000000000000000000000000AF
:10015000830200008302000083020000830200008B
:10016000000000000000000000000000000000008F
:10017000000000000000000000000000000000007F
:10018000000000000000000000000000000000006F
:10019000000000000000000000000000000000005F
:1001A000000000000000000000000000000000004F
:1001B000830200008302000083020000830200002B
:1001C000830200008302000083020000830200001B
:1001D000830200008302000083020000830200000B
:1001E00083020000830200008302000083020000FB
:1001F00083020000830200008302000083020000EB
:10020000830200008302000083020000000000005F
:1002100083020000830200008302000083020000CA
:1002200083020000830200008302000083020000BA
:1002300083020000830200008302000083020000AA
:10024000830200008302000083020000830200009A
:10025000830200008302000083020000830200008A
:1002600083020000830200008302000000F00AB84D
:10027000FEE7FEE7FEE7FEE7FEE7FEE7FEE7FEE756
:10028000FEE7FEE700F002F800F02CF80AA090E884
:10029000000C82448344AAF10107DA4501D100F041
:1002A00021F8AFF2090EBAE80F0013F0010F18BFE2
:1002B000FB1A43F001031847BC020000CC02000007
:1002C0000023002400250026103A28BF78C1FBD85F
:1002D000520728BF30C148BF0B6070471FB51FBD14
:1002E00010B510BD00F029F81146FFF7F7FF00F038
:1002F000F7F800F047F803B4FFF7F2FF03BC00F093
:100300004FF8000072B6704762B67047EFF3108086
:1003100072B6704780F31088704730BF704702484C
:100320000249014A024B704760000020600400202F
:1003300060000020704770477047754600F02CF849
:10034000AE4605006946534620F00700854618B0C2
:1003500020B5FFF7E4FFBDE820404FF000064FF066
:1003600000074FF000084FF0000B21F00701AC46EA
:10037000ACE8C009ACE8C009ACE8C009ACE8C00909
:100380008D46704710B50446AFF300802046BDE8A7
:100390001040FFF7B0BF0000004870470000002089
:1003A00001491820ABBEFEE726000200704700009E
:1003B00008B50548009002E00098401E00900098A3
:1003C0000028F9D108BD0000DE18060008B51A485B
:1003D000006840F001001949C1F80801164800689A
:1003E00000901748006820F4706015490860081FE5
:1003F000006820F00400091F08601248006840F0FF
:100400000400104908600F482030006820F0040004
:100410000C49203108600A481038006840F0040098
:1004200007491039086006482438006840F0040085
:1004300003492439086008BD08E10F4000E00F407F
:100440002C450040004400404FF0E020006920F0BF
:1004500001004FF0E02108614FF04020006980F07A
:1004600004004FF04021086100204FF0E021886136
:100470000846006940F001000861704700204FF015
:10048000E02108610848006820F07F4040F080408B
:10049000054908604FF0E020006940F006004FF089
:1004A000E02108617047000020ED00E0411E4FF0A0
:1004B000E02251610021916170474FF0E020006916
:1004C00040F001004FF0E021086170474FF0E0205C
:1004D000006920F001004FF0E02108617047000042
:1004E000FFF774FFFFF7CAFFFFF70EFF2FE00024AE
:1004F00013E00025164951F82400FFF7D7FFFFF756
:10050000DCFF01E0FFF754FF2846691CCDB202284A
:10051000F8DBFFF7DBFF601CC4B2082CE9DB14E05A
:100520000025611E0A4A52F82100FFF7BFFFFFF7BE
:10053000C4FF01E0FFF73CFF2846691CCDB202284A
:10054000F8DBFFF7C3FF601EC4B2002CE8DCCEE787
:1005500054050000467700004B6A0000B25E0000C0
:100560008B590000B84F000006470000423F0000D2
:10057000B93B00008405000000000020600400007A
:04058000C0020000B5
:040000050000026D88
:00000001FF
